:1000000001308A005B290000383084008313000827
:10001000031917280630F800F701F70B0D28F80B25
:100020000C287B30F700F70B1328800B0A280800F8
:100030003C181C2808121D28081683160812831263
:10004000BC18242888122528881683168812831243
:100050003C192C2808132D2808178316081383121F
:10006000BC19342888133528881783168813000094
:1000700083128815831688110330F700F70B3E288A
:10008000831288118316881183120800BD0183161C
:10009000081600308312081A0130BD048316881632
:1000A00000308312881A0130F7000310F70D77082B
:1000B000BD048316081700308312081B0130F700B7
:1000C000F70DF70DFC30F7057708BD048316881788
:1000D00000308312881B0130F700F70DF70DF70D84
:1000E000F830F7057708BD043D08F80008008316CE
:1000F000881188100811831288108316881008163A
:10010000881608178817831208158316081100002F
:100110008312881583168811000083124620780800
:10012000BC0088118316881100008312881583167D
:1001300088119A289B280000831246207808BB006B
:1001400088118316881108128812081388138312E5
:100150003C0EF700F030F70577083B04F80078080C
:10016000BB00BB1FB52883167F28B908031DBA281A
:100170008810BB2888148316881000008312081189
:1001800083160811000083128811831688118312C8
:100190003A0EBB000F30BB053B08BC0018203A08E4
:1001A0000F39BB00BC00182008002830B4000C3008
:1001B000B5000130B6000630B700881183168811EB
:1001C0008312881083168810831208118316081171
:1001D00008128812081388138811881008110F302C
:1001E0008312B80004200130B3003308033C031C21
:1001F00001290330BC0018200530B8000420B30AE0
:10020000F5280230BC0018200530B8000420B301E6
:100210003308033C031C182934303307840083134C
:100220000008B800B9013808BA007720B30A0829D5
:100230008A110A127D29360B1E2921294030B70068
:100240002229B70101303502B70737088038B800D6
:10025000B9013808BA00772008003408073A0319B2
:100260003B290B3A03194029063A03194829023A57
:1002700003194E2953290130B500B6001B21582916
:10028000B9010130BA0077200230B80004205829A3
:100290000130B5000230B6001B215829B9011030D9
:1002A000BA00772058290130B9003408BA00772005
:1002B0008A110A12C62903081F39830083161F14E6
:1002C0009F141F159F1107309C0083133130831238
:1002D000A0003230A1003330A2002330A300303020
:1002E000A400A500A600A700A800A900AA00AB00D2
:1002F000AC00AD00AE00AF00D528B00130080F3C17
:10030000031CA32920303007840083130008B300A6
:100310000B08F7008B13300803178D000313330805
:1003200003178C0083168C130C1555308D00AA30E2
:100330008D008C148C189A290C11770883120313E2
:100340008B04B00A7E29B10131080F3C031CCB2974
:10035000310803178D0083168C130C1483120C08BC
:100360000313B20001303107B300B5000130B6000D
:100370001B21310803178D0083168C130C14831274
:100380000C080313B3003308B4002D296430B800FF
:0A0390000420B10AA4297D296300AE
:02400E00723FFF
:00000001FF
;PIC16F877A
;CRC=F4F0  CREATED="11-Sep-22 17:01"
